{
  "contractName": "CoinFlip",
  "abi": [
    {
      "anonymous": false,
      "inputs": [
        {
          "indexed": true,
          "internalType": "address",
          "name": "oldOwner",
          "type": "address"
        },
        {
          "indexed": true,
          "internalType": "address",
          "name": "newOwner",
          "type": "address"
        }
      ],
      "name": "OwnerSet",
      "type": "event"
    },
    {
      "anonymous": false,
      "inputs": [
        {
          "indexed": false,
          "internalType": "address",
          "name": "user",
          "type": "address"
        },
        {
          "indexed": false,
          "internalType": "uint256",
          "name": "bet",
          "type": "uint256"
        },
        {
          "indexed": false,
          "internalType": "bool",
          "name": "",
          "type": "bool"
        }
      ],
      "name": "betMade",
      "type": "event"
    },
    {
      "anonymous": false,
      "inputs": [
        {
          "indexed": false,
          "internalType": "address",
          "name": "owner",
          "type": "address"
        },
        {
          "indexed": false,
          "internalType": "uint256",
          "name": "funding",
          "type": "uint256"
        }
      ],
      "name": "fundingHappened",
      "type": "event"
    },
    {
      "constant": false,
      "inputs": [
        {
          "internalType": "address",
          "name": "newOwner",
          "type": "address"
        }
      ],
      "name": "changeOwner",
      "outputs": [],
      "payable": false,
      "stateMutability": "nonpayable",
      "type": "function"
    },
    {
      "constant": false,
      "inputs": [],
      "name": "close",
      "outputs": [],
      "payable": false,
      "stateMutability": "nonpayable",
      "type": "function"
    },
    {
      "constant": true,
      "inputs": [],
      "name": "getOwner",
      "outputs": [
        {
          "internalType": "address",
          "name": "",
          "type": "address"
        }
      ],
      "payable": false,
      "stateMutability": "view",
      "type": "function"
    },
    {
      "constant": false,
      "inputs": [
        {
          "internalType": "bool",
          "name": "isHead",
          "type": "bool"
        }
      ],
      "name": "flipCoin",
      "outputs": [
        {
          "internalType": "bool",
          "name": "",
          "type": "bool"
        }
      ],
      "payable": true,
      "stateMutability": "payable",
      "type": "function"
    },
    {
      "constant": false,
      "inputs": [],
      "name": "refillPriceMoney",
      "outputs": [
        {
          "internalType": "uint256",
          "name": "",
          "type": "uint256"
        }
      ],
      "payable": true,
      "stateMutability": "payable",
      "type": "function"
    },
    {
      "constant": true,
      "inputs": [],
      "name": "getBalance",
      "outputs": [
        {
          "internalType": "uint256",
          "name": "",
          "type": "uint256"
        }
      ],
      "payable": false,
      "stateMutability": "view",
      "type": "function"
    },
    {
      "constant": false,
      "inputs": [],
      "name": "withdrawGambledBalance",
      "outputs": [
        {
          "internalType": "uint256",
          "name": "",
          "type": "uint256"
        }
      ],
      "payable": false,
      "stateMutability": "nonpayable",
      "type": "function"
    }
  ],
  "bytecode": "0x6080604052336000806101000a81548173ffffffffffffffffffffffffffffffffffffffff021916908373ffffffffffffffffffffffffffffffffffffffff1602179055506000809054906101000a900473ffffffffffffffffffffffffffffffffffffffff1673ffffffffffffffffffffffffffffffffffffffff16600073ffffffffffffffffffffffffffffffffffffffff167f342827c97908e5e2f71151c08502a66d44b6f758e3ac2f1de95f02eb95f0a73560405160405180910390a3610a8e806100cf6000396000f3fe6080604052600436106100705760003560e01c806343d726d61161004e57806343d726d6146100e95780637b8ff38f14610100578063893d20e814610148578063a6f9dae11461019f57610070565b806312065fe0146100755780631801813f146100a05780631c176252146100cb575b600080fd5b34801561008157600080fd5b5061008a6101f0565b6040518082815260200191505060405180910390f35b3480156100ac57600080fd5b506100b56102bc565b6040518082815260200191505060405180910390f35b6100d36103dd565b6040518082815260200191505060405180910390f35b3480156100f557600080fd5b506100fe61059a565b005b61012e6004803603602081101561011657600080fd5b81019080803515159060200190929190505050610675565b604051808215151515815260200191505060405180910390f35b34801561015457600080fd5b5061015d61088b565b604051808273ffffffffffffffffffffffffffffffffffffffff1673ffffffffffffffffffffffffffffffffffffffff16815260200191505060405180910390f35b3480156101ab57600080fd5b506101ee600480360360208110156101c257600080fd5b81019080803573ffffffffffffffffffffffffffffffffffffffff1690602001909291905050506108b4565b005b60008060009054906101000a900473ffffffffffffffffffffffffffffffffffffffff1673ffffffffffffffffffffffffffffffffffffffff163373ffffffffffffffffffffffffffffffffffffffff16146102b4576040517f08c379a00000000000000000000000000000000000000000000000000000000081526004018080602001828103825260138152602001807f43616c6c6572206973206e6f74206f776e65720000000000000000000000000081525060200191505060405180910390fd5b600154905090565b60008060009054906101000a900473ffffffffffffffffffffffffffffffffffffffff1673ffffffffffffffffffffffffffffffffffffffff163373ffffffffffffffffffffffffffffffffffffffff1614610380576040517f08c379a00000000000000000000000000000000000000000000000000000000081526004018080602001828103825260138152602001807f43616c6c6572206973206e6f74206f776e65720000000000000000000000000081525060200191505060405180910390fd5b6000600154905060006001819055503373ffffffffffffffffffffffffffffffffffffffff166108fc829081150290604051600060405180830381858888f193505050501580156103d5573d6000803e3d6000fd5b508091505090565b60008060009054906101000a900473ffffffffffffffffffffffffffffffffffffffff1673ffffffffffffffffffffffffffffffffffffffff163373ffffffffffffffffffffffffffffffffffffffff16146104a1576040517f08c379a00000000000000000000000000000000000000000000000000000000081526004018080602001828103825260138152602001807f43616c6c6572206973206e6f74206f776e65720000000000000000000000000081525060200191505060405180910390fd5b60003411610517576040517f08c379a000000000000000000000000000000000000000000000000000000000815260040180806020018281038252601a8152602001807f43616e6e6f7420726566756e642077697468206e6f7468696e6700000000000081525060200191505060405180910390fd5b346001600082825401925050819055507fc439f9ba2a75456124aad8a3e0d265d518b7f380a6c2eaa1ff4e38cc11b07acd3334604051808373ffffffffffffffffffffffffffffffffffffffff1673ffffffffffffffffffffffffffffffffffffffff1681526020018281526020019250505060405180910390a1600154905090565b6000809054906101000a900473ffffffffffffffffffffffffffffffffffffffff1673ffffffffffffffffffffffffffffffffffffffff163373ffffffffffffffffffffffffffffffffffffffff161461065c576040517f08c379a00000000000000000000000000000000000000000000000000000000081526004018080602001828103825260138152602001807f43616c6c6572206973206e6f74206f776e65720000000000000000000000000081525060200191505060405180910390fd5b3373ffffffffffffffffffffffffffffffffffffffff16ff5b600067016345785d8a0000803410156106f6576040517f08c379a00000000000000000000000000000000000000000000000000000000081526004018080602001828103825260168152602001807f4d696e696d756d2062657420697320302e31204554480000000000000000000081525060200191505060405180910390fd5b346001541015610751576040517f08c379a0000000000000000000000000000000000000000000000000000000008152600401808060200182810382526025815260200180610a356025913960400191505060405180910390fd5b346001600082825401925050819055506000806002428161076e57fe5b061461077b57600161077e565b60005b9050600080905081801561078f5750845b806107a25750811580156107a1575084155b5b1561080957600234026001600082825403925050819055503373ffffffffffffffffffffffffffffffffffffffff166108fc600234029081150290604051600060405180830381858888f19350505050158015610803573d6000803e3d6000fd5b50600190505b7fc474812ed82f72fba6666ee35486ac2679f87f29366d404f4a4155f04121e0c1333483604051808473ffffffffffffffffffffffffffffffffffffffff1673ffffffffffffffffffffffffffffffffffffffff16815260200183815260200182151515158152602001935050505060405180910390a1809350505050919050565b60008060009054906101000a900473ffffffffffffffffffffffffffffffffffffffff16905090565b6000809054906101000a900473ffffffffffffffffffffffffffffffffffffffff1673ffffffffffffffffffffffffffffffffffffffff163373ffffffffffffffffffffffffffffffffffffffff1614610976576040517f08c379a00000000000000000000000000000000000000000000000000000000081526004018080602001828103825260138152602001807f43616c6c6572206973206e6f74206f776e65720000000000000000000000000081525060200191505060405180910390fd5b8073ffffffffffffffffffffffffffffffffffffffff166000809054906101000a900473ffffffffffffffffffffffffffffffffffffffff1673ffffffffffffffffffffffffffffffffffffffff167f342827c97908e5e2f71151c08502a66d44b6f758e3ac2f1de95f02eb95f0a73560405160405180910390a3806000806101000a81548173ffffffffffffffffffffffffffffffffffffffff021916908373ffffffffffffffffffffffffffffffffffffffff1602179055505056fe42616c616e6365206e6f742073756666696369656e7420746f20737570706f727420626574a265627a7a72315820fd94eeb801a05f7565194ae72493cfbabb6b6732f298d6e4ac2d67e37a5cdf0864736f6c634300050c0032",
  "source": "import \"./Owner.sol\";\r\npragma solidity 0.5.12;\r\n\r\ncontract CoinFlip is Owner{\r\n\r\n  uint private balance;\r\n\r\n  modifier costs(uint cost) {\r\n    require(msg.value >= cost, \"Minimum bet is 0.1 ETH\");\r\n    _;\r\n  }\r\n\r\n  event betMade(address user, uint bet, bool);\r\n  event fundingHappened(address owner, uint funding);\r\n\r\n  function flipCoin(bool isHead) public payable costs(0.1 ether) returns(bool){\r\n    // Check if balance is sufficient to support the bet\r\n    require(balance >= msg.value, \"Balance not sufficient to support bet\");\r\n\r\n    // Always add the amount beted to the balance first\r\n    balance += msg.value;\r\n\r\n    // Now use pseudo randomness to determine heads or tails\r\n    bool coinFlipIsHead = (now % 2 == 0) ? false : true;\r\n    bool betWon = false;\r\n    // If the coinflip is head ad the person betted on head\r\n    // Or coinflip is tails and person betted on tails\r\n    if ((coinFlipIsHead && isHead) || (!coinFlipIsHead && !isHead))\r\n    {\r\n        balance -= msg.value*2;\r\n        msg.sender.transfer(msg.value*2);\r\n        betWon = true;\r\n    }\r\n    emit betMade(msg.sender, msg.value, betWon);\r\n    return betWon;\r\n  }\r\n\r\n  // Function for the owner to refill the\r\n  function refillPriceMoney() public isOwner payable returns(uint){\r\n    require(msg.value > 0, \"Cannot refund with nothing\");\r\n    balance += msg.value;\r\n    emit fundingHappened(msg.sender, msg.value);\r\n    return balance;\r\n  }\r\n\r\n  function getBalance() public isOwner view returns(uint) {\r\n    return balance;\r\n  }\r\n\r\n  // Function for contractowner to transfer the gambled currency into his account\r\n  function withdrawGambledBalance() public isOwner returns(uint) {\r\n    uint toTransfer = balance;\r\n    balance = 0;\r\n    msg.sender.transfer(toTransfer);\r\n    return toTransfer;\r\n  }\r\n\r\n}\r\n",
  "sourcePath": "D:/Dev/Projects/coinflipDapp/contracts/CoinFlip.sol",
  "compiler": {
    "name": "solc",
    "version": "0.5.12+commit.7709ece9.Emscripten.clang"
  },
  "schemaVersion": "3.0.16",
  "updatedAt": "2020-08-24T14:48:44.900Z",
  "devdoc": {
    "methods": {
      "changeOwner(address)": {
        "details": "Change owner",
        "params": {
          "newOwner": "address of new owner"
        }
      },
      "getOwner()": {
        "details": "Return owner address",
        "return": "address of owner"
      }
    }
  },
  "userdoc": {
    "methods": {}
  }
}